{
  "contractName": "OwlsJackpot",
  "abi": [
    {
      "inputs": [
        {
          "internalType": "address",
          "name": "_linkTokenAddress",
          "type": "address"
        },
        {
          "internalType": "bytes32",
          "name": "_keyHash",
          "type": "bytes32"
        },
        {
          "internalType": "address",
          "name": "_vrfCoordinatorAddress",
          "type": "address"
        },
        {
          "internalType": "uint256",
          "name": "_fee",
          "type": "uint256"
        }
      ],
      "stateMutability": "payable",
      "type": "constructor",
      "payable": true
    },
    {
      "anonymous": false,
      "inputs": [
        {
          "indexed": false,
          "internalType": "address",
          "name": "",
          "type": "address"
        }
      ],
      "name": "LogContractCreated",
      "type": "event"
    },
    {
      "anonymous": false,
      "inputs": [
        {
          "indexed": false,
          "internalType": "bytes32",
          "name": "requestId",
          "type": "bytes32"
        },
        {
          "indexed": false,
          "internalType": "uint256",
          "name": "betSize",
          "type": "uint256"
        },
        {
          "indexed": false,
          "internalType": "address",
          "name": "player",
          "type": "address"
        },
        {
          "indexed": false,
          "internalType": "uint256",
          "name": "spinCount",
          "type": "uint256"
        }
      ],
      "name": "LogCurrentRound",
      "type": "event"
    },
    {
      "anonymous": false,
      "inputs": [
        {
          "indexed": false,
          "internalType": "bytes32",
          "name": "requestId",
          "type": "bytes32"
        },
        {
          "indexed": false,
          "internalType": "uint256",
          "name": "randomness",
          "type": "uint256"
        }
      ],
      "name": "LogRandomnessFulfilled",
      "type": "event"
    },
    {
      "anonymous": false,
      "inputs": [
        {
          "indexed": false,
          "internalType": "bytes32",
          "name": "requestId",
          "type": "bytes32"
        }
      ],
      "name": "LogRequestedRandomness",
      "type": "event"
    },
    {
      "anonymous": false,
      "inputs": [
        {
          "indexed": false,
          "internalType": "bytes32",
          "name": "requestId",
          "type": "bytes32"
        },
        {
          "indexed": false,
          "internalType": "address",
          "name": "player",
          "type": "address"
        },
        {
          "indexed": false,
          "internalType": "uint256",
          "name": "betSize",
          "type": "uint256"
        },
        {
          "indexed": false,
          "internalType": "uint256[]",
          "name": "multipliers",
          "type": "uint256[]"
        },
        {
          "indexed": false,
          "internalType": "uint256[]",
          "name": "winningIncrements",
          "type": "uint256[]"
        },
        {
          "indexed": false,
          "internalType": "uint256",
          "name": "jackpotPrize",
          "type": "uint256"
        }
      ],
      "name": "LogRoundResult",
      "type": "event"
    },
    {
      "anonymous": false,
      "inputs": [
        {
          "indexed": false,
          "internalType": "address",
          "name": "user",
          "type": "address"
        },
        {
          "indexed": false,
          "internalType": "uint256",
          "name": "winnings",
          "type": "uint256"
        }
      ],
      "name": "LogUserWithdrawWinnings",
      "type": "event"
    },
    {
      "inputs": [],
      "name": "DOUBLE_WIN_BOUNDARY",
      "outputs": [
        {
          "internalType": "uint256",
          "name": "",
          "type": "uint256"
        }
      ],
      "stateMutability": "view",
      "type": "function",
      "constant": true
    },
    {
      "inputs": [],
      "name": "MAX_INT",
      "outputs": [
        {
          "internalType": "uint256",
          "name": "",
          "type": "uint256"
        }
      ],
      "stateMutability": "view",
      "type": "function",
      "constant": true
    },
    {
      "inputs": [],
      "name": "OCTUPLE_WIN_BOUNDARY",
      "outputs": [
        {
          "internalType": "uint256",
          "name": "",
          "type": "uint256"
        }
      ],
      "stateMutability": "view",
      "type": "function",
      "constant": true
    },
    {
      "inputs": [],
      "name": "QUADRUPLE_WIN_BOUNDARY",
      "outputs": [
        {
          "internalType": "uint256",
          "name": "",
          "type": "uint256"
        }
      ],
      "stateMutability": "view",
      "type": "function",
      "constant": true
    },
    {
      "inputs": [
        {
          "internalType": "bytes32",
          "name": "requestId",
          "type": "bytes32"
        },
        {
          "internalType": "uint256",
          "name": "randomness",
          "type": "uint256"
        }
      ],
      "name": "rawFulfillRandomness",
      "outputs": [],
      "stateMutability": "nonpayable",
      "type": "function"
    },
    {
      "inputs": [
        {
          "internalType": "bytes32",
          "name": "",
          "type": "bytes32"
        }
      ],
      "name": "rounds",
      "outputs": [
        {
          "internalType": "bytes32",
          "name": "requestId",
          "type": "bytes32"
        },
        {
          "internalType": "uint256",
          "name": "betSize",
          "type": "uint256"
        },
        {
          "internalType": "address",
          "name": "player",
          "type": "address"
        },
        {
          "internalType": "uint256",
          "name": "spinCount",
          "type": "uint256"
        }
      ],
      "stateMutability": "view",
      "type": "function",
      "constant": true
    },
    {
      "stateMutability": "payable",
      "type": "receive",
      "payable": true
    },
    {
      "inputs": [
        {
          "internalType": "bytes32",
          "name": "requestId",
          "type": "bytes32"
        },
        {
          "internalType": "uint256",
          "name": "randomness",
          "type": "uint256"
        }
      ],
      "name": "resolveWinnings",
      "outputs": [],
      "stateMutability": "nonpayable",
      "type": "function"
    },
    {
      "inputs": [
        {
          "internalType": "uint256",
          "name": "randomness",
          "type": "uint256"
        }
      ],
      "name": "getWinMultiplier",
      "outputs": [
        {
          "internalType": "uint256",
          "name": "",
          "type": "uint256"
        }
      ],
      "stateMutability": "nonpayable",
      "type": "function"
    },
    {
      "inputs": [
        {
          "internalType": "uint256",
          "name": "randomValue",
          "type": "uint256"
        },
        {
          "internalType": "uint256",
          "name": "n",
          "type": "uint256"
        }
      ],
      "name": "expand",
      "outputs": [
        {
          "internalType": "uint256[]",
          "name": "expandedValues",
          "type": "uint256[]"
        }
      ],
      "stateMutability": "pure",
      "type": "function",
      "constant": true
    },
    {
      "inputs": [
        {
          "internalType": "uint256",
          "name": "spinCount",
          "type": "uint256"
        }
      ],
      "name": "startRound",
      "outputs": [
        {
          "internalType": "bytes32",
          "name": "requestId",
          "type": "bytes32"
        }
      ],
      "stateMutability": "payable",
      "type": "function",
      "payable": true
    },
    {
      "inputs": [
        {
          "internalType": "address",
          "name": "userAddress",
          "type": "address"
        }
      ],
      "name": "getWinningsForUser",
      "outputs": [
        {
          "internalType": "uint256",
          "name": "",
          "type": "uint256"
        }
      ],
      "stateMutability": "view",
      "type": "function",
      "constant": true
    },
    {
      "inputs": [],
      "name": "withdrawUserFunds",
      "outputs": [],
      "stateMutability": "payable",
      "type": "function",
      "payable": true
    },
    {
      "inputs": [],
      "name": "getJackpotPrize",
      "outputs": [
        {
          "internalType": "uint256",
          "name": "",
          "type": "uint256"
        }
      ],
      "stateMutability": "view",
      "type": "function",
      "constant": true
    }
  ],
  "bytecode": "0x60c06040526040516115113803806115118339818101604052608081101561002657600080fd5b810190808051906020019092919080519060200190929190805190602001909291908051906020019092919050505081848173ffffffffffffffffffffffffffffffffffffffff1660a08173ffffffffffffffffffffffffffffffffffffffff1660601b815250508073ffffffffffffffffffffffffffffffffffffffff1660808173ffffffffffffffffffffffffffffffffffffffff1660601b815250505050826003819055508060048190555033600260006101000a81548173ffffffffffffffffffffffffffffffffffffffff021916908373ffffffffffffffffffffffffffffffffffffffff16021790555081600660006101000a81548173ffffffffffffffffffffffffffffffffffffffff021916908373ffffffffffffffffffffffffffffffffffffffff1602179055507f41c11848362b4f1de778a0ab736472605423add604f165ec40e39e8a3aa8231833604051808273ffffffffffffffffffffffffffffffffffffffff1673ffffffffffffffffffffffffffffffffffffffff16815260200191505060405180910390a15050505060805160601c60a05160601c6113256101ec60003980610aee5280610f33525080610ef752506113256000f3fe6080604052600436106100c65760003560e01c806391dc167e1161007f578063a23ad88d11610059578063a23ad88d14610349578063ae7a0134146103d9578063d2a3708714610428578063ec0d7c2414610453576100cd565b806391dc167e1461027457806394802b83146102d957806394985ddd14610304576100cd565b8063098d3228146100d25780632634ec9a146100fd5780632c10c1da14610128578063403862f2146101535780635fc3d52d14610198578063874b3afc146101da576100cd565b366100cd57005b600080fd5b3480156100de57600080fd5b506100e761045d565b6040518082815260200191505060405180910390f35b34801561010957600080fd5b50610112610481565b6040518082815260200191505060405180910390f35b34801561013457600080fd5b5061013d6104af565b6040518082815260200191505060405180910390f35b34801561015f57600080fd5b506101966004803603604081101561017657600080fd5b8101908080359060200190929190803590602001909291905050506104dd565b005b6101c4600480360360208110156101ae57600080fd5b81019080803590602001909291905050506108ac565b6040518082815260200191505060405180910390f35b3480156101e657600080fd5b5061021d600480360360408110156101fd57600080fd5b8101908080359060200190929190803590602001909291905050506109bb565b6040518080602001828103825283818151815260200191508051906020019060200280838360005b83811015610260578082015181840152602081019050610245565b505050509050019250505060405180910390f35b34801561028057600080fd5b506102c36004803603602081101561029757600080fd5b81019080803573ffffffffffffffffffffffffffffffffffffffff169060200190929190505050610a75565b6040518082815260200191505060405180910390f35b3480156102e557600080fd5b506102ee610abe565b6040518082815260200191505060405180910390f35b34801561031057600080fd5b506103476004803603604081101561032757600080fd5b810190808035906020019092919080359060200190929190505050610aec565b005b34801561035557600080fd5b506103826004803603602081101561036c57600080fd5b8101908080359060200190929190505050610bbb565b604051808581526020018481526020018373ffffffffffffffffffffffffffffffffffffffff1673ffffffffffffffffffffffffffffffffffffffff16815260200182815260200194505050505060405180910390f35b3480156103e557600080fd5b50610412600480360360208110156103fc57600080fd5b8101908080359060200190929190505050610c0b565b6040518082815260200191505060405180910390f35b34801561043457600080fd5b5061043d610cc5565b6040518082815260200191505060405180910390f35b61045b610ccf565b005b7fffffffffffffffffffffffffffffffffffffffffffffffffffffffffffffffff81565b60287fffffffffffffffffffffffffffffffffffffffffffffffffffffffffffffffff816104ab57fe5b0481565b60147fffffffffffffffffffffffffffffffffffffffffffffffffffffffffffffffff816104d957fe5b0481565b6104e5611287565b6007600084815260200190815260200160002060405180608001604052908160008201548152602001600182015481526020016002820160009054906101000a900473ffffffffffffffffffffffffffffffffffffffff1673ffffffffffffffffffffffffffffffffffffffff1673ffffffffffffffffffffffffffffffffffffffff16815260200160038201548152505090506060816060015167ffffffffffffffff8111801561059657600080fd5b506040519080825280602002602001820160405280156105c55781602001602082028036833780820191505090505b50905060606105d8848460600151610e66565b9050600060016000856040015173ffffffffffffffffffffffffffffffffffffffff1673ffffffffffffffffffffffffffffffffffffffff1681526020019081526020016000205490506060846060015167ffffffffffffffff8111801561063f57600080fd5b5060405190808252806020026020018201604052801561066e5781602001602082028036833780820191505090505b50905060008090505b85606001518110156106ee5760006106a185838151811061069457fe5b6020026020010151610c0b565b9050808683815181106106b057fe5b6020026020010181815250508087602001510284019350838383815181106106d457fe5b602002602001018181525050508080600101915050610677565b508160016000876040015173ffffffffffffffffffffffffffffffffffffffff1673ffffffffffffffffffffffffffffffffffffffff168152602001908152602001600020819055506007600088815260200190815260200160002060008082016000905560018201600090556002820160006101000a81549073ffffffffffffffffffffffffffffffffffffffff0219169055600382016000905550507fe808b7eb3167117bac72c25812cceac04194beee32519437898c414c5e58f1f787866040015187602001518785600554604051808781526020018673ffffffffffffffffffffffffffffffffffffffff1673ffffffffffffffffffffffffffffffffffffffff1681526020018581526020018060200180602001848152602001838103835286818151815260200191508051906020019060200280838360005b8381101561084857808201518184015260208101905061082d565b50505050905001838103825285818151815260200191508051906020019060200280838360005b8381101561088a57808201518184015260208101905061086f565b505050509050019850505050505050505060405180910390a150505050505050565b60006108bc600354600454610ef3565b90507fac1c01e7c96e596b7d98fcfb7d89b6f6fd8d49cd7ea4fb9a474dd38399f87164816040518082815260200191505060405180910390a1600082348161090057fe5b04905060405180608001604052808381526020018281526020013373ffffffffffffffffffffffffffffffffffffffff1681526020018481525060076000848152602001908152602001600020600082015181600001556020820151816001015560408201518160020160006101000a81548173ffffffffffffffffffffffffffffffffffffffff021916908373ffffffffffffffffffffffffffffffffffffffff1602179055506060820151816003015590505050919050565b60608167ffffffffffffffff811180156109d457600080fd5b50604051908082528060200260200182016040528015610a035781602001602082028036833780820191505090505b50905060008090505b82811015610a6b57838160405160200180838152602001828152602001925050506040516020818303038152906040528051906020012060001c828281518110610a5257fe5b6020026020010181815250508080600101915050610a0c565b5080905092915050565b6000600160008373ffffffffffffffffffffffffffffffffffffffff1673ffffffffffffffffffffffffffffffffffffffff168152602001908152602001600020549050919050565b60057fffffffffffffffffffffffffffffffffffffffffffffffffffffffffffffffff81610ae857fe5b0481565b7f000000000000000000000000000000000000000000000000000000000000000073ffffffffffffffffffffffffffffffffffffffff163373ffffffffffffffffffffffffffffffffffffffff1614610bad576040517f08c379a000000000000000000000000000000000000000000000000000000000815260040180806020018281038252601f8152602001807f4f6e6c7920565246436f6f7264696e61746f722063616e2066756c66696c6c0081525060200191505060405180910390fd5b610bb782826110ff565b5050565b60076020528060005260406000206000915090508060000154908060010154908060020160009054906101000a900473ffffffffffffffffffffffffffffffffffffffff16908060030154905084565b60008160287fffffffffffffffffffffffffffffffffffffffffffffffffffffffffffffffff81610c3857fe5b0410610c475760089050610cc0565b8160147fffffffffffffffffffffffffffffffffffffffffffffffffffffffffffffffff81610c7257fe5b0410610c815760049050610cc0565b8160057fffffffffffffffffffffffffffffffffffffffffffffffffffffffffffffffff81610cac57fe5b0410610cbb5760029050610cc0565b600090505b919050565b6000600554905090565b6000600160003373ffffffffffffffffffffffffffffffffffffffff1673ffffffffffffffffffffffffffffffffffffffff16815260200190815260200160002054905080471015610d6c576040517f08c379a00000000000000000000000000000000000000000000000000000000081526004018080602001828103825260278152602001806112c96027913960400191505060405180910390fd5b3373ffffffffffffffffffffffffffffffffffffffff166108fc829081150290604051600060405180830381858888f19350505050158015610db2573d6000803e3d6000fd5b507f3ff2242fae728123f064f2538f2de5636b54ace3e2e5a31594ce59ea31f935be3382604051808373ffffffffffffffffffffffffffffffffffffffff1673ffffffffffffffffffffffffffffffffffffffff1681526020018281526020019250505060405180910390a16000600160003373ffffffffffffffffffffffffffffffffffffffff1673ffffffffffffffffffffffffffffffffffffffff1681526020019081526020016000208190555050565b60606001821115610e8257610e7b83836109bb565b9050610eed565b6060600167ffffffffffffffff81118015610e9c57600080fd5b50604051908082528060200260200182016040528015610ecb5781602001602082028036833780820191505090505b5090508381600081518110610edc57fe5b602002602001018181525050809150505b92915050565b60007f000000000000000000000000000000000000000000000000000000000000000073ffffffffffffffffffffffffffffffffffffffff16634000aea07f00000000000000000000000000000000000000000000000000000000000000008486600060405160200180838152602001828152602001925050506040516020818303038152906040526040518463ffffffff1660e01b8152600401808473ffffffffffffffffffffffffffffffffffffffff1673ffffffffffffffffffffffffffffffffffffffff16815260200183815260200180602001828103825283818151815260200191508051906020019080838360005b83811015611003578082015181840152602081019050610fe8565b50505050905090810190601f1680156110305780820380516001836020036101000a031916815260200191505b50945050505050602060405180830381600087803b15801561105157600080fd5b505af1158015611065573d6000803e3d6000fd5b505050506040513d602081101561107b57600080fd5b81019080805190602001909291905050505060006110ae846000306000808981526020019081526020016000205461114c565b90506110d66001600080878152602001908152602001600020546111c690919063ffffffff16565b600080868152602001908152602001600020819055506110f6848261124e565b91505092915050565b7fa9f6159011996105f0f6684a7de6c8b5b3e9be4f14d63970eafe86d49e0965c08282604051808381526020018281526020019250505060405180910390a161114882826104dd565b5050565b600084848484604051602001808581526020018481526020018373ffffffffffffffffffffffffffffffffffffffff1673ffffffffffffffffffffffffffffffffffffffff1681526020018281526020019450505050506040516020818303038152906040528051906020012060001c9050949350505050565b600080828401905083811015611244576040517f08c379a000000000000000000000000000000000000000000000000000000000815260040180806020018281038252601b8152602001807f536166654d6174683a206164646974696f6e206f766572666c6f77000000000081525060200191505060405180910390fd5b8091505092915050565b60008282604051602001808381526020018281526020019250505060405160208183030381529060405280519060200120905092915050565b60405180608001604052806000801916815260200160008152602001600073ffffffffffffffffffffffffffffffffffffffff16815260200160008152509056fe4572726f722c20636f6e74726163742068617320696e737566666963656e742062616c616e6365a26469706673582212205d749467807475d7ef9479cb572eb69ccdfd21e34180778ab4b47f43e084f65664736f6c63430006060033",
  "immutableReferences": {
    "76": [
      {
        "length": 32,
        "start": 3831
      }
    ],
    "78": [
      {
        "length": 32,
        "start": 2798
      },
      {
        "length": 32,
        "start": 3891
      }
    ]
  },
  "source": "// SPDX-License-Identifier: MIT\npragma solidity ^0.6.6;\n\nimport \"@chainlink/contracts/src/v0.6/VRFConsumerBase.sol\";\n\ncontract OwlsJackpot is VRFConsumerBase  {\n  mapping(address => uint256) private winners;\n  address internal owner;\n  bytes32 internal keyHash;\n  uint256 internal fee;\n  uint256 internal jackpotPrize;\n  address private vrfCoordinatorAddress;\n\n  event LogContractCreated(address);\n  event LogRequestedRandomness(bytes32 requestId);\n  event LogRandomnessFulfilled(bytes32 requestId, uint256 randomness);\n  event LogRoundResult(bytes32 requestId, address player, uint256 betSize, uint256[] multipliers, uint256[] winningIncrements, uint256 jackpotPrize);\n  event LogUserWithdrawWinnings(address user, uint256 winnings);\n  event LogCurrentRound(bytes32 requestId, uint256 betSize, address player, uint256 spinCount);\n\n  // MAX number that will be returned by randomness function\n  //uint256 constant public MAX_INT = 115792089237316195423570985008687907853269984665640564039457584007913129639935;\n  uint256 constant public MAX_INT = 2**256 - 1;\n  // odds for testing purpose \n  // 50% change to win: (MAX_INT + 1) / 2\n  // uint256 constant public DOUBLE_WIN_BOUNDARY = 57896044618658097711785492504343953926634992332820282019728792003956564819968;\n  // 25% change to win: DOUBLE_WIN_BOUNDARY / 2\n  // uint256 constant public QUADRUPLE_WIN_BOUNDARY = 28948022309329048855892746252171976963317496166410141009864396001978282409984;\n  // 12.5% change to win: QUADRUPLE_WIN_BOUNDARY / 2\n  // uint256 constant public OCTUPLE_WIN_BOUNDARY = 14474011154664524427946373126085988481658748083205070504932198000989141204992;\n\n  // These odds are closer to reality\n  // 20% change to win: (MAX_INT + 1) / 5\n  uint256 constant public DOUBLE_WIN_BOUNDARY = MAX_INT / 5;\n  // 5% change to win: DOUBLE_WIN_BOUNDARY / 20\n  uint256 constant public QUADRUPLE_WIN_BOUNDARY = MAX_INT / 20;\n  // 2.5% change to win: QUADRUPLE_WIN_BOUNDARY / 40\n  uint256 constant public OCTUPLE_WIN_BOUNDARY = MAX_INT / 40;\n\n\n  struct Round {\n    bytes32 requestId;\n    uint256 betSize;\n    address player;\n    uint256 spinCount;\n  }\n\n  mapping(bytes32 => Round) public rounds;\n\n  modifier onlyAdmin() {\n    require(msg.sender == owner, 'function can be called only contract owner');\n    _;\n  }\n\n  modifier onlyVFRCoordinator() {\n    require(msg.sender == vrfCoordinatorAddress, 'function can be called only VRF coordinator');\n    _;\n  }\n\n  /**\n    * Constructor inherits VRFConsumerBase\n    * \n    * Network: Kovan\n    * Chainlink VRF Coordinator address: 0xdD3782915140c8f3b190B5D67eAc6dc5760C46E9\n    * LINK token address:                0xa36085F69e2889c224210F603D836748e7dC0088\n    * Key Hash: 0x6c3699283bda56ad74f6b855546325b68d482e983852a7a82979cc4807b641f4\n    */\n  constructor(address _linkTokenAddress, bytes32 _keyHash, \n  address _vrfCoordinatorAddress, uint256 _fee)\n    VRFConsumerBase(\n        _vrfCoordinatorAddress, // VRF Coordinator\n        _linkTokenAddress  // LINK Token\n    ) public payable\n  {\n    keyHash = _keyHash;\n    fee = _fee;\n    owner = payable(msg.sender);\n    vrfCoordinatorAddress = _vrfCoordinatorAddress;\n    emit LogContractCreated(msg.sender);\n  }\n\n  /**\n    * Callback function used by VRF Coordinator\n    */\n  function fulfillRandomness(bytes32 requestId, uint256 randomness) internal override {\n      emit LogRandomnessFulfilled(requestId, randomness);\n      resolveWinnings(requestId, randomness);\n  }\n\n  function getRandomValues(uint256 randomness, uint256 spinCount) private returns (uint256[] memory expandedValues) {\n    if (spinCount > 1) {\n      return expand(randomness, spinCount);\n    } else {\n      uint256[] memory singleRandomValue = new uint256[](1);\n      singleRandomValue[0] = uint256(randomness);\n      return singleRandomValue;\n    }\n  }\n\n  function resolveWinnings(bytes32 requestId, uint256 randomness) public {\n    Round memory currentRound = rounds[requestId];\n    uint256[] memory multipliers = new uint256[](currentRound.spinCount);\n    uint256[] memory randomValues = getRandomValues(randomness, currentRound.spinCount);\n    uint256 updatedWinnings = winners[currentRound.player];\n    uint256[] memory winningIncrements = new uint256[](currentRound.spinCount);\n    for (uint256 i = 0; i < currentRound.spinCount; i++) {\n      uint256 multiplier = getWinMultiplier(randomValues[i]);\n      multipliers[i] = multiplier;\n      updatedWinnings = updatedWinnings + (currentRound.betSize * multiplier);\n      winningIncrements[i] = updatedWinnings;\n    }\n    winners[currentRound.player] = updatedWinnings;\n    \n    delete rounds[requestId];\n    \n    emit LogRoundResult(requestId, currentRound.player, currentRound.betSize, multipliers, winningIncrements, jackpotPrize);\n  }\n\n  function getWinMultiplier(uint256 randomness) public returns (uint256) {\n    if (OCTUPLE_WIN_BOUNDARY >= randomness) {\n      return 8;\n    } else if (QUADRUPLE_WIN_BOUNDARY >= randomness) {\n      return 4;\n    } else if (DOUBLE_WIN_BOUNDARY >= randomness) {\n      return 2;\n    }\n    return 0;\n  }\n\nfunction expand(uint256 randomValue, uint256 n) public pure returns (uint256[] memory expandedValues) {\n    expandedValues = new uint256[](n);\n    for (uint256 i = 0; i < n; i++) {\n        expandedValues[i] = uint256(keccak256(abi.encode(randomValue, i)));\n    }\n    return expandedValues;\n}\n\n  /** \n    * Requests randomness from a user-provided seed\n    */\n  function startRound(uint256 spinCount) public payable returns (bytes32 requestId) {\n      // require(address(this).balance>= (msg.value * 8), 'Error, insufficent vault balance');\n      requestId = requestRandomness(keyHash, fee);\n      emit LogRequestedRandomness(requestId);\n      uint256 betSize = msg.value / spinCount;\n      rounds[requestId] = Round(requestId, betSize, msg.sender, spinCount);\n  }\n\n  function getWinningsForUser(address userAddress) public view returns (uint256) {\n    return winners[userAddress];\n  }\n\n  function withdrawUserFunds() external payable {\n    uint256 userWinnings = winners[msg.sender];\n    require(address(this).balance>=userWinnings, 'Error, contract has insufficent balance');\n    payable(msg.sender).transfer(userWinnings);\n    emit LogUserWithdrawWinnings(msg.sender, userWinnings);\n    winners[msg.sender] = 0;\n    \n  }\n\n  function getJackpotPrize() public view returns (uint256) {\n    return jackpotPrize;\n  }\n\n  receive() external payable {}\n}\n",
  "sourcePath": "/Users/lehtonen/Documents/solidity/sleth/contracts/OwlsJackpot.sol",
  "compiler": {
    "name": "solc",
    "version": "0.6.6+commit.6c089d02.Emscripten.clang"
  },
  "schemaVersion": "3.4.3",
  "updatedAt": "2021-10-29T10:46:17.218Z",
  "networkType": "ethereum",
  "devdoc": {
    "methods": {}
  },
  "userdoc": {
    "methods": {
      "constructor": "Constructor inherits VRFConsumerBase     * Network: Kovan Chainlink VRF Coordinator address: 0xdD3782915140c8f3b190B5D67eAc6dc5760C46E9 LINK token address:                0xa36085F69e2889c224210F603D836748e7dC0088 Key Hash: 0x6c3699283bda56ad74f6b855546325b68d482e983852a7a82979cc4807b641f4",
      "startRound(uint256)": {
        "notice": "Requests randomness from a user-provided seed"
      }
    }
  }
}